{
  "address": "0xdab8d42ddB0B8A3B5c91e3dAaC5F16F3B6E7E9f2",
  "abi": [
    {
      "inputs": [
        {
          "internalType": "uint256",
          "name": "_lockTime",
          "type": "uint256"
        },
        {
          "internalType": "address",
          "name": "dataFeedAddress",
          "type": "address"
        }
      ],
      "stateMutability": "nonpayable",
      "type": "constructor"
    },
    {
      "inputs": [],
      "name": "fund",
      "outputs": [],
      "stateMutability": "payable",
      "type": "function"
    },
    {
      "inputs": [
        {
          "internalType": "address",
          "name": "",
          "type": "address"
        }
      ],
      "name": "fundersToAmount",
      "outputs": [
        {
          "internalType": "uint256",
          "name": "",
          "type": "uint256"
        }
      ],
      "stateMutability": "view",
      "type": "function"
    },
    {
      "inputs": [],
      "name": "getChainlinkDataFeedLatestAnswer",
      "outputs": [
        {
          "internalType": "int256",
          "name": "",
          "type": "int256"
        }
      ],
      "stateMutability": "view",
      "type": "function"
    },
    {
      "inputs": [],
      "name": "getFund",
      "outputs": [],
      "stateMutability": "nonpayable",
      "type": "function"
    },
    {
      "inputs": [],
      "name": "getFundSuccess",
      "outputs": [
        {
          "internalType": "bool",
          "name": "",
          "type": "bool"
        }
      ],
      "stateMutability": "view",
      "type": "function"
    },
    {
      "inputs": [],
      "name": "owner",
      "outputs": [
        {
          "internalType": "address",
          "name": "",
          "type": "address"
        }
      ],
      "stateMutability": "view",
      "type": "function"
    },
    {
      "inputs": [],
      "name": "refund",
      "outputs": [],
      "stateMutability": "nonpayable",
      "type": "function"
    },
    {
      "inputs": [
        {
          "internalType": "address",
          "name": "_erc20Addr",
          "type": "address"
        }
      ],
      "name": "setErc20Addr",
      "outputs": [],
      "stateMutability": "nonpayable",
      "type": "function"
    },
    {
      "inputs": [
        {
          "internalType": "address",
          "name": "funder",
          "type": "address"
        },
        {
          "internalType": "uint256",
          "name": "amountToUpdate",
          "type": "uint256"
        }
      ],
      "name": "setFunderToAmount",
      "outputs": [],
      "stateMutability": "nonpayable",
      "type": "function"
    },
    {
      "inputs": [
        {
          "internalType": "address",
          "name": "newOwner",
          "type": "address"
        }
      ],
      "name": "transferOwnership",
      "outputs": [],
      "stateMutability": "nonpayable",
      "type": "function"
    }
  ],
  "transactionHash": "0x2274588892a1ee630b0eafe760474df0f8fc47e4cfb4dc885066f8de4555d09e",
  "args": [
    180,
    "0x694AA1769357215DE4FAC081bf1f309aDC325306"
  ],
  "numDeployments": 1,
  "solcInputHash": "f21b96c4768d34f0a8dba391f6952899",
  "bytecode": "0x60806040526000600560146101000a81548160ff02191690831515021790555034801561002b57600080fd5b50604051611569380380611569833981810160405281019061004d919061017d565b80600160006101000a81548173ffffffffffffffffffffffffffffffffffffffff021916908373ffffffffffffffffffffffffffffffffffffffff16021790555033600260006101000a81548173ffffffffffffffffffffffffffffffffffffffff021916908373ffffffffffffffffffffffffffffffffffffffff160217905550426003819055508160048190555050506101bd565b600080fd5b6000819050919050565b6100fc816100e9565b811461010757600080fd5b50565b600081519050610119816100f3565b92915050565b600073ffffffffffffffffffffffffffffffffffffffff82169050919050565b600061014a8261011f565b9050919050565b61015a8161013f565b811461016557600080fd5b50565b60008151905061017781610151565b92915050565b60008060408385031215610194576101936100e4565b5b60006101a28582860161010a565b92505060206101b385828601610168565b9150509250929050565b61139d806101cc6000396000f3fe6080604052600436106100915760003560e01c8063b60d428811610059578063b60d428814610155578063bea4dfb51461015f578063d39cf0061461018a578063da4658e0146101b3578063f2fde38b146101de57610091565b806313ffff0114610096578063590e1ae3146100bf5780638da5cb5b146100d65780638edd6eb6146101015780639f883a0514610118575b600080fd5b3480156100a257600080fd5b506100bd60048036038101906100b89190610b94565b610207565b005b3480156100cb57600080fd5b506100d46102db565b005b3480156100e257600080fd5b506100eb610534565b6040516100f89190610bd0565b60405180910390f35b34801561010d57600080fd5b5061011661055a565b005b34801561012457600080fd5b5061013f600480360381019061013a9190610b94565b6107a0565b60405161014c9190610c04565b60405180910390f35b61015d6107b8565b005b34801561016b57600080fd5b506101746108a2565b6040516101819190610c38565b60405180910390f35b34801561019657600080fd5b506101b160048036038101906101ac9190610c7f565b610943565b005b3480156101bf57600080fd5b506101c8610a1a565b6040516101d59190610cda565b60405180910390f35b3480156101ea57600080fd5b5061020560048036038101906102009190610b94565b610a2d565b005b600260009054906101000a900473ffffffffffffffffffffffffffffffffffffffff1673ffffffffffffffffffffffffffffffffffffffff163373ffffffffffffffffffffffffffffffffffffffff1614610297576040517f08c379a000000000000000000000000000000000000000000000000000000000815260040161028e90610d78565b60405180910390fd5b80600560006101000a81548173ffffffffffffffffffffffffffffffffffffffff021916908373ffffffffffffffffffffffffffffffffffffffff16021790555050565b6004546003546102eb9190610dc7565b42101561032d576040517f08c379a000000000000000000000000000000000000000000000000000000000815260040161032490610e47565b60405180910390fd5b683635c9adc5dea0000061034047610b01565b10610380576040517f08c379a000000000000000000000000000000000000000000000000000000000815260040161037790610eb3565b60405180910390fd5b60008060003373ffffffffffffffffffffffffffffffffffffffff1673ffffffffffffffffffffffffffffffffffffffff1681526020019081526020016000205403610401576040517f08c379a00000000000000000000000000000000000000000000000000000000081526004016103f890610f1f565b60405180910390fd5b60003373ffffffffffffffffffffffffffffffffffffffff166000803373ffffffffffffffffffffffffffffffffffffffff1673ffffffffffffffffffffffffffffffffffffffff1681526020019081526020016000205460405161046590610f70565b60006040518083038185875af1925050503d80600081146104a2576040519150601f19603f3d011682016040523d82523d6000602084013e6104a7565b606091505b505080915050806104ed576040517f08c379a00000000000000000000000000000000000000000000000000000000081526004016104e490610fd1565b60405180910390fd5b60008060003373ffffffffffffffffffffffffffffffffffffffff1673ffffffffffffffffffffffffffffffffffffffff1681526020019081526020016000208190555050565b600260009054906101000a900473ffffffffffffffffffffffffffffffffffffffff1681565b60045460035461056a9190610dc7565b4210156105ac576040517f08c379a00000000000000000000000000000000000000000000000000000000081526004016105a390610e47565b60405180910390fd5b600260009054906101000a900473ffffffffffffffffffffffffffffffffffffffff1673ffffffffffffffffffffffffffffffffffffffff163373ffffffffffffffffffffffffffffffffffffffff161461063c576040517f08c379a000000000000000000000000000000000000000000000000000000000815260040161063390610d78565b60405180910390fd5b683635c9adc5dea0000061064f47610b01565b1015610690576040517f08c379a00000000000000000000000000000000000000000000000000000000081526004016106879061103d565b60405180910390fd5b60003373ffffffffffffffffffffffffffffffffffffffff16476040516106b690610f70565b60006040518083038185875af1925050503d80600081146106f3576040519150601f19603f3d011682016040523d82523d6000602084013e6106f8565b606091505b5050809150508061073e576040517f08c379a000000000000000000000000000000000000000000000000000000000815260040161073590610fd1565b60405180910390fd5b60008060003373ffffffffffffffffffffffffffffffffffffffff1673ffffffffffffffffffffffffffffffffffffffff168152602001908152602001600020819055506001600560146101000a81548160ff02191690831515021790555050565b60006020528060005260406000206000915090505481565b68056bc75e2d631000006107cb34610b01565b101561080c576040517f08c379a0000000000000000000000000000000000000000000000000000000008152600401610803906110a9565b60405180910390fd5b60045460035461081c9190610dc7565b421061085d576040517f08c379a000000000000000000000000000000000000000000000000000000000815260040161085490611115565b60405180910390fd5b346000803373ffffffffffffffffffffffffffffffffffffffff1673ffffffffffffffffffffffffffffffffffffffff16815260200190815260200160002081905550565b600080600160009054906101000a900473ffffffffffffffffffffffffffffffffffffffff1673ffffffffffffffffffffffffffffffffffffffff1663feaf968c6040518163ffffffff1660e01b815260040160a060405180830381865afa158015610912573d6000803e3d6000fd5b505050506040513d601f19601f8201168201806040525081019061093691906111b8565b5050509150508091505090565b600560009054906101000a900473ffffffffffffffffffffffffffffffffffffffff1673ffffffffffffffffffffffffffffffffffffffff163373ffffffffffffffffffffffffffffffffffffffff16146109d3576040517f08c379a00000000000000000000000000000000000000000000000000000000081526004016109ca906112a5565b60405180910390fd5b806000808473ffffffffffffffffffffffffffffffffffffffff1673ffffffffffffffffffffffffffffffffffffffff168152602001908152602001600020819055505050565b600560149054906101000a900460ff1681565b600260009054906101000a900473ffffffffffffffffffffffffffffffffffffffff1673ffffffffffffffffffffffffffffffffffffffff163373ffffffffffffffffffffffffffffffffffffffff1614610abd576040517f08c379a0000000000000000000000000000000000000000000000000000000008152600401610ab490610d78565b60405180910390fd5b80600260006101000a81548173ffffffffffffffffffffffffffffffffffffffff021916908373ffffffffffffffffffffffffffffffffffffffff16021790555050565b600080610b0c6108a2565b90506305f5e1008184610b1f91906112c5565b610b299190611336565b915050919050565b600080fd5b600073ffffffffffffffffffffffffffffffffffffffff82169050919050565b6000610b6182610b36565b9050919050565b610b7181610b56565b8114610b7c57600080fd5b50565b600081359050610b8e81610b68565b92915050565b600060208284031215610baa57610ba9610b31565b5b6000610bb884828501610b7f565b91505092915050565b610bca81610b56565b82525050565b6000602082019050610be56000830184610bc1565b92915050565b6000819050919050565b610bfe81610beb565b82525050565b6000602082019050610c196000830184610bf5565b92915050565b6000819050919050565b610c3281610c1f565b82525050565b6000602082019050610c4d6000830184610c29565b92915050565b610c5c81610beb565b8114610c6757600080fd5b50565b600081359050610c7981610c53565b92915050565b60008060408385031215610c9657610c95610b31565b5b6000610ca485828601610b7f565b9250506020610cb585828601610c6a565b9150509250929050565b60008115159050919050565b610cd481610cbf565b82525050565b6000602082019050610cef6000830184610ccb565b92915050565b600082825260208201905092915050565b7f746869732066756e6374696f6e2063616e206f6e6c792062652063616c6c656460008201527f206279206f776e65720000000000000000000000000000000000000000000000602082015250565b6000610d62602983610cf5565b9150610d6d82610d06565b604082019050919050565b60006020820190508181036000830152610d9181610d55565b9050919050565b7f4e487b7100000000000000000000000000000000000000000000000000000000600052601160045260246000fd5b6000610dd282610beb565b9150610ddd83610beb565b9250828201905080821115610df557610df4610d98565b5b92915050565b7f77696e646f77206973206e6f7420636c6f736564000000000000000000000000600082015250565b6000610e31601483610cf5565b9150610e3c82610dfb565b602082019050919050565b60006020820190508181036000830152610e6081610e24565b9050919050565b7f5461726765742069732072656163686564000000000000000000000000000000600082015250565b6000610e9d601183610cf5565b9150610ea882610e67565b602082019050919050565b60006020820190508181036000830152610ecc81610e90565b9050919050565b7f7468657265206973206e6f2066756e6420666f7220796f750000000000000000600082015250565b6000610f09601883610cf5565b9150610f1482610ed3565b602082019050919050565b60006020820190508181036000830152610f3881610efc565b9050919050565b600081905092915050565b50565b6000610f5a600083610f3f565b9150610f6582610f4a565b600082019050919050565b6000610f7b82610f4d565b9150819050919050565b7f7472616e73666572207478206661696c65640000000000000000000000000000600082015250565b6000610fbb601283610cf5565b9150610fc682610f85565b602082019050919050565b60006020820190508181036000830152610fea81610fae565b9050919050565b7f546172676574206973206e6f7420726561636865640000000000000000000000600082015250565b6000611027601583610cf5565b915061103282610ff1565b602082019050919050565b600060208201905081810360008301526110568161101a565b9050919050565b7f53656e64206d6f72652045544800000000000000000000000000000000000000600082015250565b6000611093600d83610cf5565b915061109e8261105d565b602082019050919050565b600060208201905081810360008301526110c281611086565b9050919050565b7f77696e646f7720697320636c6f73656400000000000000000000000000000000600082015250565b60006110ff601083610cf5565b915061110a826110c9565b602082019050919050565b6000602082019050818103600083015261112e816110f2565b9050919050565b600069ffffffffffffffffffff82169050919050565b61115481611135565b811461115f57600080fd5b50565b6000815190506111718161114b565b92915050565b61118081610c1f565b811461118b57600080fd5b50565b60008151905061119d81611177565b92915050565b6000815190506111b281610c53565b92915050565b600080600080600060a086880312156111d4576111d3610b31565b5b60006111e288828901611162565b95505060206111f38882890161118e565b9450506040611204888289016111a3565b9350506060611215888289016111a3565b925050608061122688828901611162565b9150509295509295909350565b7f796f7520646f206e6f742068617665207065726d697373696f6e20746f20636160008201527f6c6c20746869732066756e74696f6e0000000000000000000000000000000000602082015250565b600061128f602f83610cf5565b915061129a82611233565b604082019050919050565b600060208201905081810360008301526112be81611282565b9050919050565b60006112d082610beb565b91506112db83610beb565b92508282026112e981610beb565b91508282048414831517611300576112ff610d98565b5b5092915050565b7f4e487b7100000000000000000000000000000000000000000000000000000000600052601260045260246000fd5b600061134182610beb565b915061134c83610beb565b92508261135c5761135b611307565b5b82820490509291505056fea264697066735822122044b39b11b18424729c58df6845f215f8f362801c777f9588c74527d80dbe62db64736f6c634300081c0033",
  "devdoc": {
    "kind": "dev",
    "methods": {},
    "version": 1
  },
  "userdoc": {
    "kind": "user",
    "methods": {},
    "version": 1
  },
  "storageLayout": {
    "storage": [
      {
        "astId": 53,
        "contract": "contracts/FundMe.sol:FundMe",
        "label": "fundersToAmount",
        "offset": 0,
        "slot": "0",
        "type": "t_mapping(t_address,t_uint256)"
      },
      {
        "astId": 63,
        "contract": "contracts/FundMe.sol:FundMe",
        "label": "dataFeed",
        "offset": 0,
        "slot": "1",
        "type": "t_contract(AggregatorV3Interface)45"
      },
      {
        "astId": 72,
        "contract": "contracts/FundMe.sol:FundMe",
        "label": "owner",
        "offset": 0,
        "slot": "2",
        "type": "t_address"
      },
      {
        "astId": 74,
        "contract": "contracts/FundMe.sol:FundMe",
        "label": "deploymentTimestamp",
        "offset": 0,
        "slot": "3",
        "type": "t_uint256"
      },
      {
        "astId": 76,
        "contract": "contracts/FundMe.sol:FundMe",
        "label": "lockTime",
        "offset": 0,
        "slot": "4",
        "type": "t_uint256"
      },
      {
        "astId": 78,
        "contract": "contracts/FundMe.sol:FundMe",
        "label": "erc20Addr",
        "offset": 0,
        "slot": "5",
        "type": "t_address"
      },
      {
        "astId": 81,
        "contract": "contracts/FundMe.sol:FundMe",
        "label": "getFundSuccess",
        "offset": 20,
        "slot": "5",
        "type": "t_bool"
      }
    ],
    "types": {
      "t_address": {
        "encoding": "inplace",
        "label": "address",
        "numberOfBytes": "20"
      },
      "t_bool": {
        "encoding": "inplace",
        "label": "bool",
        "numberOfBytes": "1"
      },
      "t_contract(AggregatorV3Interface)45": {
        "encoding": "inplace",
        "label": "contract AggregatorV3Interface",
        "numberOfBytes": "20"
      },
      "t_mapping(t_address,t_uint256)": {
        "encoding": "mapping",
        "key": "t_address",
        "label": "mapping(address => uint256)",
        "numberOfBytes": "32",
        "value": "t_uint256"
      },
      "t_uint256": {
        "encoding": "inplace",
        "label": "uint256",
        "numberOfBytes": "32"
      }
    }
  }
}